{
  "abi": [
    {
      "inputs": [],
      "stateMutability": "nonpayable",
      "type": "constructor"
    },
    {
      "anonymous": false,
      "inputs": [
        {
          "indexed": true,
          "internalType": "address",
          "name": "owner",
          "type": "address"
        },
        {
          "indexed": true,
          "internalType": "address",
          "name": "approved",
          "type": "address"
        },
        {
          "indexed": true,
          "internalType": "uint256",
          "name": "tokenId",
          "type": "uint256"
        }
      ],
      "name": "Approval",
      "type": "event"
    },
    {
      "anonymous": false,
      "inputs": [
        {
          "indexed": true,
          "internalType": "address",
          "name": "owner",
          "type": "address"
        },
        {
          "indexed": true,
          "internalType": "address",
          "name": "operator",
          "type": "address"
        },
        {
          "indexed": false,
          "internalType": "bool",
          "name": "approved",
          "type": "bool"
        }
      ],
      "name": "ApprovalForAll",
      "type": "event"
    },
    {
      "anonymous": false,
      "inputs": [
        {
          "indexed": false,
          "internalType": "uint256",
          "name": "_fromTokenId",
          "type": "uint256"
        },
        {
          "indexed": false,
          "internalType": "uint256",
          "name": "_toTokenId",
          "type": "uint256"
        }
      ],
      "name": "BatchMetadataUpdate",
      "type": "event"
    },
    {
      "anonymous": false,
      "inputs": [
        {
          "indexed": false,
          "internalType": "uint256",
          "name": "_tokenId",
          "type": "uint256"
        }
      ],
      "name": "MetadataUpdate",
      "type": "event"
    },
    {
      "anonymous": false,
      "inputs": [
        {
          "indexed": true,
          "internalType": "address",
          "name": "from",
          "type": "address"
        },
        {
          "indexed": true,
          "internalType": "address",
          "name": "to",
          "type": "address"
        },
        {
          "indexed": true,
          "internalType": "uint256",
          "name": "tokenId",
          "type": "uint256"
        }
      ],
      "name": "Transfer",
      "type": "event"
    },
    {
      "inputs": [
        {
          "internalType": "address",
          "name": "to",
          "type": "address"
        },
        {
          "internalType": "uint256",
          "name": "tokenId",
          "type": "uint256"
        }
      ],
      "name": "approve",
      "outputs": [],
      "stateMutability": "nonpayable",
      "type": "function"
    },
    {
      "inputs": [
        {
          "internalType": "address",
          "name": "owner",
          "type": "address"
        }
      ],
      "name": "balanceOf",
      "outputs": [
        {
          "internalType": "uint256",
          "name": "",
          "type": "uint256"
        }
      ],
      "stateMutability": "view",
      "type": "function"
    },
    {
      "inputs": [
        {
          "internalType": "uint256",
          "name": "tokenId",
          "type": "uint256"
        }
      ],
      "name": "getApproved",
      "outputs": [
        {
          "internalType": "address",
          "name": "",
          "type": "address"
        }
      ],
      "stateMutability": "view",
      "type": "function"
    },
    {
      "inputs": [
        {
          "internalType": "address",
          "name": "owner",
          "type": "address"
        },
        {
          "internalType": "address",
          "name": "operator",
          "type": "address"
        }
      ],
      "name": "isApprovedForAll",
      "outputs": [
        {
          "internalType": "bool",
          "name": "",
          "type": "bool"
        }
      ],
      "stateMutability": "view",
      "type": "function"
    },
    {
      "inputs": [],
      "name": "mint",
      "outputs": [
        {
          "internalType": "uint256",
          "name": "",
          "type": "uint256"
        }
      ],
      "stateMutability": "nonpayable",
      "type": "function"
    },
    {
      "inputs": [],
      "name": "name",
      "outputs": [
        {
          "internalType": "string",
          "name": "",
          "type": "string"
        }
      ],
      "stateMutability": "view",
      "type": "function"
    },
    {
      "inputs": [
        {
          "internalType": "uint256",
          "name": "tokenId",
          "type": "uint256"
        }
      ],
      "name": "ownerOf",
      "outputs": [
        {
          "internalType": "address",
          "name": "",
          "type": "address"
        }
      ],
      "stateMutability": "view",
      "type": "function"
    },
    {
      "inputs": [
        {
          "internalType": "address",
          "name": "from",
          "type": "address"
        },
        {
          "internalType": "address",
          "name": "to",
          "type": "address"
        },
        {
          "internalType": "uint256",
          "name": "tokenId",
          "type": "uint256"
        }
      ],
      "name": "safeTransferFrom",
      "outputs": [],
      "stateMutability": "nonpayable",
      "type": "function"
    },
    {
      "inputs": [
        {
          "internalType": "address",
          "name": "from",
          "type": "address"
        },
        {
          "internalType": "address",
          "name": "to",
          "type": "address"
        },
        {
          "internalType": "uint256",
          "name": "tokenId",
          "type": "uint256"
        },
        {
          "internalType": "bytes",
          "name": "data",
          "type": "bytes"
        }
      ],
      "name": "safeTransferFrom",
      "outputs": [],
      "stateMutability": "nonpayable",
      "type": "function"
    },
    {
      "inputs": [
        {
          "internalType": "address",
          "name": "operator",
          "type": "address"
        },
        {
          "internalType": "bool",
          "name": "approved",
          "type": "bool"
        }
      ],
      "name": "setApprovalForAll",
      "outputs": [],
      "stateMutability": "nonpayable",
      "type": "function"
    },
    {
      "inputs": [
        {
          "internalType": "bytes4",
          "name": "interfaceId",
          "type": "bytes4"
        }
      ],
      "name": "supportsInterface",
      "outputs": [
        {
          "internalType": "bool",
          "name": "",
          "type": "bool"
        }
      ],
      "stateMutability": "view",
      "type": "function"
    },
    {
      "inputs": [],
      "name": "symbol",
      "outputs": [
        {
          "internalType": "string",
          "name": "",
          "type": "string"
        }
      ],
      "stateMutability": "view",
      "type": "function"
    },
    {
      "inputs": [
        {
          "internalType": "uint256",
          "name": "tokenId",
          "type": "uint256"
        }
      ],
      "name": "tokenURI",
      "outputs": [
        {
          "internalType": "string",
          "name": "",
          "type": "string"
        }
      ],
      "stateMutability": "view",
      "type": "function"
    },
    {
      "inputs": [
        {
          "internalType": "address",
          "name": "from",
          "type": "address"
        },
        {
          "internalType": "address",
          "name": "to",
          "type": "address"
        },
        {
          "internalType": "uint256",
          "name": "tokenId",
          "type": "uint256"
        }
      ],
      "name": "transferFrom",
      "outputs": [],
      "stateMutability": "nonpayable",
      "type": "function"
    }
  ],
  "bytecode": {
    "object": "0x60806040523480156200001157600080fd5b50604051806040016040528060058152602001644644656d6f60d81b81525060405180604001604052806002815260200161119160f21b81525081600090816200005c919062000119565b5060016200006b828262000119565b505050620001e5565b634e487b7160e01b600052604160045260246000fd5b600181811c908216806200009f57607f821691505b602082108103620000c057634e487b7160e01b600052602260045260246000fd5b50919050565b601f8211156200011457600081815260208120601f850160051c81016020861015620000ef5750805b601f850160051c820191505b818110156200011057828155600101620000fb565b5050505b505050565b81516001600160401b0381111562000135576200013562000074565b6200014d816200014684546200008a565b84620000c6565b602080601f8311600181146200018557600084156200016c5750858301515b600019600386901b1c1916600185901b17855562000110565b600085815260208120601f198616915b82811015620001b65788860151825594840194600190910190840162000195565b5085821015620001d55787850151600019600388901b60f8161c191681555b5050505050600190811b01905550565b6115f980620001f56000396000f3fe608060405234801561001057600080fd5b50600436106100ea5760003560e01c80636352211e1161008c578063a22cb46511610066578063a22cb465146101d6578063b88d4fde146101e9578063c87b56dd146101fc578063e985e9c51461020f57600080fd5b80636352211e146101a857806370a08231146101bb57806395d89b41146101ce57600080fd5b8063095ea7b3116100c8578063095ea7b3146101575780631249c58b1461016c57806323b872dd1461018257806342842e0e1461019557600080fd5b806301ffc9a7146100ef57806306fdde0314610117578063081812fc1461012c575b600080fd5b6101026100fd366004611074565b61024b565b60405190151581526020015b60405180910390f35b61011f610276565b60405161010e91906110e9565b61013f61013a3660046110fc565b610308565b6040516001600160a01b03909116815260200161010e565b61016a61016536600461112c565b61032f565b005b610174610449565b60405190815260200161010e565b61016a610190366004611156565b61048d565b61016a6101a3366004611156565b6104be565b61013f6101b63660046110fc565b6104d9565b6101746101c9366004611192565b610539565b61011f6105bf565b61016a6101e43660046111ad565b6105ce565b61016a6101f73660046111ff565b6105dd565b61011f61020a3660046110fc565b610615565b61010261021d3660046112db565b6001600160a01b03918216600090815260056020908152604080832093909416825291909152205460ff1690565b60006001600160e01b03198216632483248360e11b1480610270575061027082610725565b92915050565b6060600080546102859061130e565b80601f01602080910402602001604051908101604052809291908181526020018280546102b19061130e565b80156102fe5780601f106102d3576101008083540402835291602001916102fe565b820191906000526020600020905b8154815290600101906020018083116102e157829003601f168201915b5050505050905090565b600061031382610775565b506000908152600460205260409020546001600160a01b031690565b600061033a826104d9565b9050806001600160a01b0316836001600160a01b0316036103ac5760405162461bcd60e51b815260206004820152602160248201527f4552433732313a20617070726f76616c20746f2063757272656e74206f776e656044820152603960f91b60648201526084015b60405180910390fd5b336001600160a01b03821614806103c857506103c8813361021d565b61043a5760405162461bcd60e51b815260206004820152603d60248201527f4552433732313a20617070726f76652063616c6c6572206973206e6f7420746f60448201527f6b656e206f776e6572206f7220617070726f76656420666f7220616c6c00000060648201526084016103a3565b61044483836107d7565b505050565b60008061045560075490565b90506104613382610845565b61047a81604051806020016040528060008152506109d0565b610488600780546001019055565b919050565b6104973382610a9b565b6104b35760405162461bcd60e51b81526004016103a390611348565b610444838383610b19565b610444838383604051806020016040528060008152506105dd565b6000818152600260205260408120546001600160a01b0316806102705760405162461bcd60e51b8152602060048201526018602482015277115490cdcc8c4e881a5b9d985b1a59081d1bdad95b88125160421b60448201526064016103a3565b60006001600160a01b0382166105a35760405162461bcd60e51b815260206004820152602960248201527f4552433732313a2061646472657373207a65726f206973206e6f7420612076616044820152683634b21037bbb732b960b91b60648201526084016103a3565b506001600160a01b031660009081526003602052604090205490565b6060600180546102859061130e565b6105d9338383610c7d565b5050565b6105e73383610a9b565b6106035760405162461bcd60e51b81526004016103a390611348565b61060f84848484610d4b565b50505050565b606061062082610775565b600082815260066020526040812080546106399061130e565b80601f01602080910402602001604051908101604052809291908181526020018280546106659061130e565b80156106b25780601f10610687576101008083540402835291602001916106b2565b820191906000526020600020905b81548152906001019060200180831161069557829003601f168201915b5050505050905060006106d060408051602081019091526000815290565b905080516000036106e2575092915050565b8151156107145780826040516020016106fc929190611395565b60405160208183030381529060405292505050919050565b61071d84610d7e565b949350505050565b60006001600160e01b031982166380ac58cd60e01b148061075657506001600160e01b03198216635b5e139f60e01b145b8061027057506301ffc9a760e01b6001600160e01b0319831614610270565b6000818152600260205260409020546001600160a01b03166107d45760405162461bcd60e51b8152602060048201526018602482015277115490cdcc8c4e881a5b9d985b1a59081d1bdad95b88125160421b60448201526064016103a3565b50565b600081815260046020526040902080546001600160a01b0319166001600160a01b038416908117909155819061080c826104d9565b6001600160a01b03167f8c5be1e5ebec7d5bd14f71427d1e84f3dd0314c0f7b2291e5b200ac8c7c3b92560405160405180910390a45050565b6001600160a01b03821661089b5760405162461bcd60e51b815260206004820181905260248201527f4552433732313a206d696e7420746f20746865207a65726f206164647265737360448201526064016103a3565b6000818152600260205260409020546001600160a01b0316156109005760405162461bcd60e51b815260206004820152601c60248201527f4552433732313a20746f6b656e20616c7265616479206d696e7465640000000060448201526064016103a3565b6000818152600260205260409020546001600160a01b0316156109655760405162461bcd60e51b815260206004820152601c60248201527f4552433732313a20746f6b656e20616c7265616479206d696e7465640000000060448201526064016103a3565b6001600160a01b038216600081815260036020908152604080832080546001019055848352600290915280822080546001600160a01b0319168417905551839291907fddf252ad1be2c89b69c2b068fc378daa952ba7f163c4a11628f55a4df523b3ef908290a45050565b6000828152600260205260409020546001600160a01b0316610a4b5760405162461bcd60e51b815260206004820152602e60248201527f45524337323155524953746f726167653a2055524920736574206f66206e6f6e60448201526d32bc34b9ba32b73a103a37b5b2b760911b60648201526084016103a3565b6000828152600660205260409020610a638282611412565b506040518281527ff8e1a15aba9398e019f0b49df1a4fde98ee17ae345cb5f6b5e2c27f5033e8ce79060200160405180910390a15050565b600080610aa7836104d9565b9050806001600160a01b0316846001600160a01b03161480610aee57506001600160a01b0380821660009081526005602090815260408083209388168352929052205460ff165b8061071d5750836001600160a01b0316610b0784610308565b6001600160a01b031614949350505050565b826001600160a01b0316610b2c826104d9565b6001600160a01b031614610b525760405162461bcd60e51b81526004016103a3906114d2565b6001600160a01b038216610bb45760405162461bcd60e51b8152602060048201526024808201527f4552433732313a207472616e7366657220746f20746865207a65726f206164646044820152637265737360e01b60648201526084016103a3565b826001600160a01b0316610bc7826104d9565b6001600160a01b031614610bed5760405162461bcd60e51b81526004016103a3906114d2565b600081815260046020908152604080832080546001600160a01b03199081169091556001600160a01b0387811680865260038552838620805460001901905590871680865283862080546001019055868652600290945282852080549092168417909155905184937fddf252ad1be2c89b69c2b068fc378daa952ba7f163c4a11628f55a4df523b3ef91a4505050565b816001600160a01b0316836001600160a01b031603610cde5760405162461bcd60e51b815260206004820152601960248201527f4552433732313a20617070726f766520746f2063616c6c65720000000000000060448201526064016103a3565b6001600160a01b03838116600081815260056020908152604080832094871680845294825291829020805460ff191686151590811790915591519182527f17307eab39ab6107e8899845ad3d59bd9653f200f220920489ca2b5937696c31910160405180910390a3505050565b610d56848484610b19565b610d6284848484610df2565b61060f5760405162461bcd60e51b81526004016103a390611517565b6060610d8982610775565b6000610da060408051602081019091526000815290565b90506000815111610dc05760405180602001604052806000815250610deb565b80610dca84610ef3565b604051602001610ddb929190611395565b6040516020818303038152906040525b9392505050565b60006001600160a01b0384163b15610ee857604051630a85bd0160e11b81526001600160a01b0385169063150b7a0290610e36903390899088908890600401611569565b6020604051808303816000875af1925050508015610e71575060408051601f3d908101601f19168201909252610e6e918101906115a6565b60015b610ece573d808015610e9f576040519150601f19603f3d011682016040523d82523d6000602084013e610ea4565b606091505b508051600003610ec65760405162461bcd60e51b81526004016103a390611517565b805181602001fd5b6001600160e01b031916630a85bd0160e11b14905061071d565b506001949350505050565b60606000610f0083610f86565b600101905060008167ffffffffffffffff811115610f2057610f206111e9565b6040519080825280601f01601f191660200182016040528015610f4a576020820181803683370190505b5090508181016020015b600019016f181899199a1a9b1b9c1cb0b131b232b360811b600a86061a8153600a8504945084610f5457509392505050565b60008072184f03e93ff9f4daa797ed6e38ed64bf6a1f0160401b8310610fc55772184f03e93ff9f4daa797ed6e38ed64bf6a1f0160401b830492506040015b6d04ee2d6d415b85acef81000000008310610ff1576d04ee2d6d415b85acef8100000000830492506020015b662386f26fc10000831061100f57662386f26fc10000830492506010015b6305f5e1008310611027576305f5e100830492506008015b612710831061103b57612710830492506004015b6064831061104d576064830492506002015b600a83106102705760010192915050565b6001600160e01b0319811681146107d457600080fd5b60006020828403121561108657600080fd5b8135610deb8161105e565b60005b838110156110ac578181015183820152602001611094565b8381111561060f5750506000910152565b600081518084526110d5816020860160208601611091565b601f01601f19169290920160200192915050565b602081526000610deb60208301846110bd565b60006020828403121561110e57600080fd5b5035919050565b80356001600160a01b038116811461048857600080fd5b6000806040838503121561113f57600080fd5b61114883611115565b946020939093013593505050565b60008060006060848603121561116b57600080fd5b61117484611115565b925061118260208501611115565b9150604084013590509250925092565b6000602082840312156111a457600080fd5b610deb82611115565b600080604083850312156111c057600080fd5b6111c983611115565b9150602083013580151581146111de57600080fd5b809150509250929050565b634e487b7160e01b600052604160045260246000fd5b6000806000806080858703121561121557600080fd5b61121e85611115565b935061122c60208601611115565b925060408501359150606085013567ffffffffffffffff8082111561125057600080fd5b818701915087601f83011261126457600080fd5b813581811115611276576112766111e9565b604051601f8201601f19908116603f0116810190838211818310171561129e5761129e6111e9565b816040528281528a60208487010111156112b757600080fd5b82602086016020830137600060208483010152809550505050505092959194509250565b600080604083850312156112ee57600080fd5b6112f783611115565b915061130560208401611115565b90509250929050565b600181811c9082168061132257607f821691505b60208210810361134257634e487b7160e01b600052602260045260246000fd5b50919050565b6020808252602d908201527f4552433732313a2063616c6c6572206973206e6f7420746f6b656e206f776e6560408201526c1c881bdc88185c1c1c9bdd9959609a1b606082015260800190565b600083516113a7818460208801611091565b8351908301906113bb818360208801611091565b01949350505050565b601f82111561044457600081815260208120601f850160051c810160208610156113eb5750805b601f850160051c820191505b8181101561140a578281556001016113f7565b505050505050565b815167ffffffffffffffff81111561142c5761142c6111e9565b6114408161143a845461130e565b846113c4565b602080601f831160018114611475576000841561145d5750858301515b600019600386901b1c1916600185901b17855561140a565b600085815260208120601f198616915b828110156114a457888601518255948401946001909101908401611485565b50858210156114c25787850151600019600388901b60f8161c191681555b5050505050600190811b01905550565b60208082526025908201527f4552433732313a207472616e736665722066726f6d20696e636f72726563742060408201526437bbb732b960d91b606082015260800190565b60208082526032908201527f4552433732313a207472616e7366657220746f206e6f6e20455243373231526560408201527131b2b4bb32b91034b6b83632b6b2b73a32b960711b606082015260800190565b6001600160a01b038581168252841660208201526040810183905260806060820181905260009061159c908301846110bd565b9695505050505050565b6000602082840312156115b857600080fd5b8151610deb8161105e56fea26469706673582212207f66dc3e9deb3e5731afb61ed7615f7e8add16eb1bc5e45c8726b16c2dd7bddd64736f6c634300080f0033",
    "linkReferences": {}
  },
  "methodIdentifiers": {
    "approve(address,uint256)": "095ea7b3",
    "balanceOf(address)": "70a08231",
    "getApproved(uint256)": "081812fc",
    "isApprovedForAll(address,address)": "e985e9c5",
    "mint()": "1249c58b",
    "name()": "06fdde03",
    "ownerOf(uint256)": "6352211e",
    "safeTransferFrom(address,address,uint256)": "42842e0e",
    "safeTransferFrom(address,address,uint256,bytes)": "b88d4fde",
    "setApprovalForAll(address,bool)": "a22cb465",
    "supportsInterface(bytes4)": "01ffc9a7",
    "symbol()": "95d89b41",
    "tokenURI(uint256)": "c87b56dd",
    "transferFrom(address,address,uint256)": "23b872dd"
  },
  "id": 29
}